{
  "_format": "hh-sol-artifact-1",
  "contractName": "ValleyManager",
  "sourceName": "contracts/ValleyManager.sol",
  "abi": [
    {
      "inputs": [],
      "stateMutability": "nonpayable",
      "type": "constructor"
    },
    {
      "inputs": [
        {
          "internalType": "string",
          "name": "_title",
          "type": "string"
        },
        {
          "internalType": "string",
          "name": "_description",
          "type": "string"
        },
        {
          "internalType": "string",
          "name": "_id",
          "type": "string"
        },
        {
          "internalType": "string",
          "name": "_url",
          "type": "string"
        }
      ],
      "name": "addVideo",
      "outputs": [],
      "stateMutability": "payable",
      "type": "function"
    },
    {
      "inputs": [
        {
          "internalType": "address",
          "name": "",
          "type": "address"
        }
      ],
      "name": "balances",
      "outputs": [
        {
          "internalType": "uint256",
          "name": "",
          "type": "uint256"
        }
      ],
      "stateMutability": "view",
      "type": "function"
    },
    {
      "inputs": [],
      "name": "currentSeason",
      "outputs": [
        {
          "internalType": "uint256",
          "name": "",
          "type": "uint256"
        }
      ],
      "stateMutability": "view",
      "type": "function"
    },
    {
      "inputs": [
        {
          "internalType": "uint256",
          "name": "season",
          "type": "uint256"
        }
      ],
      "name": "getAllVideos",
      "outputs": [
        {
          "components": [
            {
              "internalType": "address",
              "name": "submitter",
              "type": "address"
            },
            {
              "internalType": "string",
              "name": "title",
              "type": "string"
            },
            {
              "internalType": "string",
              "name": "description",
              "type": "string"
            },
            {
              "internalType": "string",
              "name": "id",
              "type": "string"
            },
            {
              "internalType": "string",
              "name": "url",
              "type": "string"
            },
            {
              "internalType": "uint256",
              "name": "votes",
              "type": "uint256"
            }
          ],
          "internalType": "struct ValleyManager.VideoSubmission[]",
          "name": "",
          "type": "tuple[]"
        }
      ],
      "stateMutability": "view",
      "type": "function"
    },
    {
      "inputs": [
        {
          "internalType": "uint256",
          "name": "",
          "type": "uint256"
        },
        {
          "internalType": "string",
          "name": "",
          "type": "string"
        }
      ],
      "name": "idsToSubmissions",
      "outputs": [
        {
          "internalType": "address",
          "name": "submitter",
          "type": "address"
        },
        {
          "internalType": "string",
          "name": "title",
          "type": "string"
        },
        {
          "internalType": "string",
          "name": "description",
          "type": "string"
        },
        {
          "internalType": "string",
          "name": "id",
          "type": "string"
        },
        {
          "internalType": "string",
          "name": "url",
          "type": "string"
        },
        {
          "internalType": "uint256",
          "name": "votes",
          "type": "uint256"
        }
      ],
      "stateMutability": "view",
      "type": "function"
    },
    {
      "inputs": [
        {
          "internalType": "uint256",
          "name": "",
          "type": "uint256"
        },
        {
          "internalType": "string",
          "name": "",
          "type": "string"
        }
      ],
      "name": "isAlreadySubmitted",
      "outputs": [
        {
          "internalType": "bool",
          "name": "",
          "type": "bool"
        }
      ],
      "stateMutability": "view",
      "type": "function"
    },
    {
      "inputs": [],
      "name": "owner",
      "outputs": [
        {
          "internalType": "address",
          "name": "",
          "type": "address"
        }
      ],
      "stateMutability": "view",
      "type": "function"
    },
    {
      "inputs": [],
      "name": "pushSeason",
      "outputs": [],
      "stateMutability": "nonpayable",
      "type": "function"
    },
    {
      "inputs": [],
      "name": "seasonLength",
      "outputs": [
        {
          "internalType": "uint256",
          "name": "",
          "type": "uint256"
        }
      ],
      "stateMutability": "view",
      "type": "function"
    },
    {
      "inputs": [
        {
          "internalType": "uint256",
          "name": "",
          "type": "uint256"
        }
      ],
      "name": "seasons",
      "outputs": [
        {
          "internalType": "uint256",
          "name": "totalValue",
          "type": "uint256"
        },
        {
          "internalType": "uint256",
          "name": "endingDate",
          "type": "uint256"
        },
        {
          "internalType": "uint256",
          "name": "collectedFees",
          "type": "uint256"
        }
      ],
      "stateMutability": "view",
      "type": "function"
    },
    {
      "inputs": [],
      "name": "submissionFee",
      "outputs": [
        {
          "internalType": "uint256",
          "name": "",
          "type": "uint256"
        }
      ],
      "stateMutability": "view",
      "type": "function"
    },
    {
      "inputs": [
        {
          "internalType": "uint256",
          "name": "",
          "type": "uint256"
        },
        {
          "internalType": "uint256",
          "name": "",
          "type": "uint256"
        }
      ],
      "name": "submittedVideosIds",
      "outputs": [
        {
          "internalType": "string",
          "name": "",
          "type": "string"
        }
      ],
      "stateMutability": "view",
      "type": "function"
    },
    {
      "inputs": [
        {
          "internalType": "uint256",
          "name": "",
          "type": "uint256"
        },
        {
          "internalType": "address",
          "name": "",
          "type": "address"
        }
      ],
      "name": "totalUserLockedBalanceInSeason",
      "outputs": [
        {
          "internalType": "uint256",
          "name": "",
          "type": "uint256"
        }
      ],
      "stateMutability": "view",
      "type": "function"
    },
    {
      "inputs": [
        {
          "internalType": "string",
          "name": "_id",
          "type": "string"
        }
      ],
      "name": "vote",
      "outputs": [],
      "stateMutability": "payable",
      "type": "function"
    },
    {
      "inputs": [
        {
          "internalType": "uint256",
          "name": "season",
          "type": "uint256"
        }
      ],
      "name": "withdraw",
      "outputs": [],
      "stateMutability": "nonpayable",
      "type": "function"
    }
  ],
  "bytecode": "0x6080604052670de0b6b3a764000060015561025860025560006003553480156200002857600080fd5b50336000806101000a81548173ffffffffffffffffffffffffffffffffffffffff021916908373ffffffffffffffffffffffffffffffffffffffff1602179055506009604051806060016040528060008152602001600254426200008d9190620000e6565b81526020016000815250908060018154018082558091505060019003906000526020600020906003020160009091909190915060008201518160000155602082015181600101556040820151816002015550506200017c565b6000620000f38262000143565b9150620001008362000143565b9250827fffffffffffffffffffffffffffffffffffffffffffffffffffffffffffffffff038211156200013857620001376200014d565b5b828201905092915050565b6000819050919050565b7f4e487b7100000000000000000000000000000000000000000000000000000000600052601160045260246000fd5b6125e3806200018c6000396000f3fe6080604052600436106100e85760003560e01c8063824257c01161008a578063bcb3962111610059578063bcb3962114610312578063e88889421461033d578063f5d709a114610368578063fc36e15b146103a7576100e8565b8063824257c0146102685780638da5cb5b1461027f578063a1d5f114146102aa578063b31ed9d6146102e7576100e8565b8063309ebfb9116100c6578063309ebfb9146101905780634611610a146101ac57806374e6ab08146101ee5780637d4914eb1461022b576100e8565b8063085c7854146100ed57806327e235e31461012a5780632e1a7d4d14610167575b600080fd5b3480156100f957600080fd5b50610114600480360381019061010f9190611b0f565b6103c3565b6040516101219190612094565b60405180910390f35b34801561013657600080fd5b50610151600480360381019061014c91906119cc565b610801565b60405161015e9190612193565b60405180910390f35b34801561017357600080fd5b5061018e60048036038101906101899190611b0f565b610819565b005b6101aa60048036038101906101a59190611a3a565b610aca565b005b3480156101b857600080fd5b506101d360048036038101906101ce9190611b74565b610ef0565b6040516101e596959493929190612017565b60405180910390f35b3480156101fa57600080fd5b5061021560048036038101906102109190611bc8565b61118f565b60405161022291906120d1565b60405180910390f35b34801561023757600080fd5b50610252600480360381019061024d9190611b38565b611248565b60405161025f9190612193565b60405180910390f35b34801561027457600080fd5b5061027d61126d565b005b34801561028b57600080fd5b506102946115ce565b6040516102a19190611ffc565b60405180910390f35b3480156102b657600080fd5b506102d160048036038101906102cc9190611b74565b6115f2565b6040516102de91906120b6565b60405180910390f35b3480156102f357600080fd5b506102fc611637565b6040516103099190612193565b60405180910390f35b34801561031e57600080fd5b5061032761163d565b6040516103349190612193565b60405180910390f35b34801561034957600080fd5b50610352611643565b60405161035f9190612193565b60405180910390f35b34801561037457600080fd5b5061038f600480360381019061038a9190611b0f565b611649565b60405161039e939291906121ae565b60405180910390f35b6103c160048036038101906103bc91906119f5565b611683565b005b606060006007600084815260200190815260200160002080549050905060008167ffffffffffffffff811115610422577f4e487b7100000000000000000000000000000000000000000000000000000000600052604160045260246000fd5b60405190808252806020026020018201604052801561045b57816020015b61044861177b565b8152602001906001900390816104405790505b50905060005b828110156107f657600660008681526020019081526020016000206007600087815260200190815260200160002082815481106104c7577f4e487b7100000000000000000000000000000000000000000000000000000000600052603260045260246000fd5b906000526020600020016040516104de9190611fe5565b90815260200160405180910390206040518060c00160405290816000820160009054906101000a900473ffffffffffffffffffffffffffffffffffffffff1673ffffffffffffffffffffffffffffffffffffffff1673ffffffffffffffffffffffffffffffffffffffff16815260200160018201805461055d90612437565b80601f016020809104026020016040519081016040528092919081815260200182805461058990612437565b80156105d65780601f106105ab576101008083540402835291602001916105d6565b820191906000526020600020905b8154815290600101906020018083116105b957829003601f168201915b505050505081526020016002820180546105ef90612437565b80601f016020809104026020016040519081016040528092919081815260200182805461061b90612437565b80156106685780601f1061063d57610100808354040283529160200191610668565b820191906000526020600020905b81548152906001019060200180831161064b57829003601f168201915b5050505050815260200160038201805461068190612437565b80601f01602080910402602001604051908101604052809291908181526020018280546106ad90612437565b80156106fa5780601f106106cf576101008083540402835291602001916106fa565b820191906000526020600020905b8154815290600101906020018083116106dd57829003601f168201915b5050505050815260200160048201805461071390612437565b80601f016020809104026020016040519081016040528092919081815260200182805461073f90612437565b801561078c5780601f106107615761010080835404028352916020019161078c565b820191906000526020600020905b81548152906001019060200180831161076f57829003601f168201915b505050505081526020016005820154815250508282815181106107d8577f4e487b7100000000000000000000000000000000000000000000000000000000600052603260045260246000fd5b602002602001018190525080806107ee90612469565b915050610461565b508092505050919050565b60046020528060005260406000206000915090505481565b60006005600083815260200190815260200160002060003373ffffffffffffffffffffffffffffffffffffffff1673ffffffffffffffffffffffffffffffffffffffff16815260200190815260200160002054116108ac576040517f08c379a00000000000000000000000000000000000000000000000000000000081526004016108a390612173565b60405180910390fd5b426009600354815481106108e9577f4e487b7100000000000000000000000000000000000000000000000000000000600052603260045260246000fd5b9060005260206000209060030201600101541061090557600080fd5b6000600960035481548110610943577f4e487b7100000000000000000000000000000000000000000000000000000000600052603260045260246000fd5b9060005260206000209060030201600001549050600060056000600354815260200190815260200160002060003373ffffffffffffffffffffffffffffffffffffffff1673ffffffffffffffffffffffffffffffffffffffff1681526020019081526020016000205490506000828260026009600354815481106109f0577f4e487b7100000000000000000000000000000000000000000000000000000000600052603260045260246000fd5b906000526020600020906003020160020154610a0c9190612322565b610a169190612353565b610a209190612322565b90503373ffffffffffffffffffffffffffffffffffffffff166108fc826005600088815260200190815260200160002060003373ffffffffffffffffffffffffffffffffffffffff1673ffffffffffffffffffffffffffffffffffffffff16815260200190815260200160002054610a9891906122cc565b9081150290604051600060405180830381858888f19350505050158015610ac3573d6000803e3d6000fd5b5050505050565b600154341015610b0f576040517f08c379a0000000000000000000000000000000000000000000000000000000008152600401610b0690612153565b60405180910390fd5b600015156008600060035481526020019081526020016000208585604051610b38929190611fcc565b908152602001604051809103902060009054906101000a900460ff16151514610b96576040517f08c379a0000000000000000000000000000000000000000000000000000000008152600401610b8d90612133565b60405180910390fd5b6040518060c001604052803373ffffffffffffffffffffffffffffffffffffffff16815260200189898080601f016020809104026020016040519081016040528093929190818152602001838380828437600081840152601f19601f82011690508083019250505050505050815260200187878080601f016020809104026020016040519081016040528093929190818152602001838380828437600081840152601f19601f82011690508083019250505050505050815260200185858080601f016020809104026020016040519081016040528093929190818152602001838380828437600081840152601f19601f82011690508083019250505050505050815260200183838080601f016020809104026020016040519081016040528093929190818152602001838380828437600081840152601f19601f82011690508083019250505050505050815260200160008152506006600060035481526020019081526020016000208585604051610d0f929190611fcc565b908152602001604051809103902060008201518160000160006101000a81548173ffffffffffffffffffffffffffffffffffffffff021916908373ffffffffffffffffffffffffffffffffffffffff1602179055506020820151816001019080519060200190610d809291906117c7565b506040820151816002019080519060200190610d9d9291906117c7565b506060820151816003019080519060200190610dba9291906117c7565b506080820151816004019080519060200190610dd79291906117c7565b5060a08201518160050155905050600760006003548152602001908152602001600020848490918060018154018082558091505060019003906000526020600020016000909192909192909192909192509190610e3592919061184d565b5060016008600060035481526020019081526020016000208585604051610e5d929190611fcc565b908152602001604051809103902060006101000a81548160ff02191690831515021790555034600960035481548110610ebf577f4e487b7100000000000000000000000000000000000000000000000000000000600052603260045260246000fd5b90600052602060002090600302016002016000828254610edf91906122cc565b925050819055505050505050505050565b600660205281600052604060002081805160208101820180518482526020830160208501208183528095505050505050600091509150508060000160009054906101000a900473ffffffffffffffffffffffffffffffffffffffff1690806001018054610f5c90612437565b80601f0160208091040260200160405190810160405280929190818152602001828054610f8890612437565b8015610fd55780601f10610faa57610100808354040283529160200191610fd5565b820191906000526020600020905b815481529060010190602001808311610fb857829003601f168201915b505050505090806002018054610fea90612437565b80601f016020809104026020016040519081016040528092919081815260200182805461101690612437565b80156110635780601f1061103857610100808354040283529160200191611063565b820191906000526020600020905b81548152906001019060200180831161104657829003601f168201915b50505050509080600301805461107890612437565b80601f01602080910402602001604051908101604052809291908181526020018280546110a490612437565b80156110f15780601f106110c6576101008083540402835291602001916110f1565b820191906000526020600020905b8154815290600101906020018083116110d457829003601f168201915b50505050509080600401805461110690612437565b80601f016020809104026020016040519081016040528092919081815260200182805461113290612437565b801561117f5780601f106111545761010080835404028352916020019161117f565b820191906000526020600020905b81548152906001019060200180831161116257829003601f168201915b5050505050908060050154905086565b600760205281600052604060002081815481106111ab57600080fd5b906000526020600020016000915091505080546111c790612437565b80601f01602080910402602001604051908101604052809291908181526020018280546111f390612437565b80156112405780601f1061121557610100808354040283529160200191611240565b820191906000526020600020905b81548152906001019060200180831161122357829003601f168201915b505050505081565b6005602052816000526040600020602052806000526040600020600091509150505481565b426009600354815481106112aa577f4e487b7100000000000000000000000000000000000000000000000000000000600052603260045260246000fd5b906000526020600020906003020160010154106112fc576040517f08c379a00000000000000000000000000000000000000000000000000000000081526004016112f390612113565b60405180910390fd5b600080600080600760006003548152602001908152602001600020805490509050600093505b808410156113dc576000600660006003548152602001908152602001600020600760006003548152602001908152602001600020868154811061138e577f4e487b7100000000000000000000000000000000000000000000000000000000600052603260045260246000fd5b906000526020600020016040516113a59190611fe5565b9081526020016040518091039020600501549050838111156113c8578093508492505b5083806113d490612469565b945050611322565b60006006600060035481526020019081526020016000206007600060035481526020019081526020016000208481548110611440577f4e487b7100000000000000000000000000000000000000000000000000000000600052603260045260246000fd5b906000526020600020016040516114579190611fe5565b908152602001604051809103902060000160009054906101000a900473ffffffffffffffffffffffffffffffffffffffff16905060026009600354815481106114c9577f4e487b7100000000000000000000000000000000000000000000000000000000600052603260045260246000fd5b9060005260206000209060030201600201546114e59190612322565b600460008373ffffffffffffffffffffffffffffffffffffffff1673ffffffffffffffffffffffffffffffffffffffff168152602001908152602001600020600082825461153391906122cc565b925050819055506003600081548092919061154d90612469565b919050555060096040518060600160405280600081526020016002544261157491906122cc565b81526020016000815250908060018154018082558091505060019003906000526020600020906003020160009091909190915060008201518160000155602082015181600101556040820151816002015550505050505050565b60008054906101000a900473ffffffffffffffffffffffffffffffffffffffff1681565b6008602052816000526040600020818051602081018201805184825260208301602085012081835280955050505050506000915091509054906101000a900460ff1681565b60025481565b60035481565b60015481565b6009818154811061165957600080fd5b90600052602060002090600302016000915090508060000154908060010154908060020154905083565b600034116116c6576040517f08c379a00000000000000000000000000000000000000000000000000000000081526004016116bd906120f3565b60405180910390fd5b3460066000600354815260200190815260200160002083836040516116ec929190611fcc565b9081526020016040518091039020600501600082825461170c91906122cc565b9250508190555034600960035481548110611750577f4e487b7100000000000000000000000000000000000000000000000000000000600052603260045260246000fd5b9060005260206000209060030201600001600082825461177091906122cc565b925050819055505050565b6040518060c00160405280600073ffffffffffffffffffffffffffffffffffffffff16815260200160608152602001606081526020016060815260200160608152602001600081525090565b8280546117d390612437565b90600052602060002090601f0160209004810192826117f5576000855561183c565b82601f1061180e57805160ff191683800117855561183c565b8280016001018555821561183c579182015b8281111561183b578251825591602001919060010190611820565b5b50905061184991906118d3565b5090565b82805461185990612437565b90600052602060002090601f01602090048101928261187b57600085556118c2565b82601f1061189457803560ff19168380011785556118c2565b828001600101855582156118c2579182015b828111156118c15782358255916020019190600101906118a6565b5b5090506118cf91906118d3565b5090565b5b808211156118ec5760008160009055506001016118d4565b5090565b60006119036118fe84612216565b6121e5565b90508281526020810184848401111561191b57600080fd5b6119268482856123f5565b509392505050565b60008135905061193d8161257f565b92915050565b60008083601f84011261195557600080fd5b8235905067ffffffffffffffff81111561196e57600080fd5b60208301915083600182028301111561198657600080fd5b9250929050565b600082601f83011261199e57600080fd5b81356119ae8482602086016118f0565b91505092915050565b6000813590506119c681612596565b92915050565b6000602082840312156119de57600080fd5b60006119ec8482850161192e565b91505092915050565b60008060208385031215611a0857600080fd5b600083013567ffffffffffffffff811115611a2257600080fd5b611a2e85828601611943565b92509250509250929050565b6000806000806000806000806080898b031215611a5657600080fd5b600089013567ffffffffffffffff811115611a7057600080fd5b611a7c8b828c01611943565b9850985050602089013567ffffffffffffffff811115611a9b57600080fd5b611aa78b828c01611943565b9650965050604089013567ffffffffffffffff811115611ac657600080fd5b611ad28b828c01611943565b9450945050606089013567ffffffffffffffff811115611af157600080fd5b611afd8b828c01611943565b92509250509295985092959890939650565b600060208284031215611b2157600080fd5b6000611b2f848285016119b7565b91505092915050565b60008060408385031215611b4b57600080fd5b6000611b59858286016119b7565b9250506020611b6a8582860161192e565b9150509250929050565b60008060408385031215611b8757600080fd5b6000611b95858286016119b7565b925050602083013567ffffffffffffffff811115611bb257600080fd5b611bbe8582860161198d565b9150509250929050565b60008060408385031215611bdb57600080fd5b6000611be9858286016119b7565b9250506020611bfa858286016119b7565b9150509250929050565b6000611c108383611f10565b905092915050565b611c21816123ad565b82525050565b611c30816123ad565b82525050565b6000611c418261226b565b611c4b818561228e565b935083602082028501611c5d85612246565b8060005b85811015611c995784840389528151611c7a8582611c04565b9450611c8583612281565b925060208a01995050600181019050611c61565b50829750879550505050505092915050565b611cb4816123bf565b82525050565b6000611cc683856122c1565b9350611cd38385846123f5565b82840190509392505050565b6000611cea82612276565b611cf4818561229f565b9350611d04818560208601612404565b611d0d8161256e565b840191505092915050565b6000611d2382612276565b611d2d81856122b0565b9350611d3d818560208601612404565b611d468161256e565b840191505092915050565b60008154611d5e81612437565b611d6881866122c1565b94506001821660008114611d835760018114611d9457611dc7565b60ff19831686528186019350611dc7565b611d9d85612256565b60005b83811015611dbf57815481890152600182019150602081019050611da0565b838801955050505b50505092915050565b6000611ddd6015836122b0565b91507f63616e6e6f7420766f74652077697468207a65726f00000000000000000000006000830152602082019050919050565b6000611e1d6013836122b0565b91507f736561736f6e206973206e6f7420656e646564000000000000000000000000006000830152602082019050919050565b6000611e5d6017836122b0565b91507f766964656f20616c7265616479207375626d69747465640000000000000000006000830152602082019050919050565b6000611e9d6010836122b0565b91507f46656520697320746f6f20736d616c6c000000000000000000000000000000006000830152602082019050919050565b6000611edd6012836122b0565b91507f757365722068617665206e6f2066756e647300000000000000000000000000006000830152602082019050919050565b600060c083016000830151611f286000860182611c18565b5060208301518482036020860152611f408282611cdf565b91505060408301518482036040860152611f5a8282611cdf565b91505060608301518482036060860152611f748282611cdf565b91505060808301518482036080860152611f8e8282611cdf565b91505060a0830151611fa360a0860182611fae565b508091505092915050565b611fb7816123eb565b82525050565b611fc6816123eb565b82525050565b6000611fd9828486611cba565b91508190509392505050565b6000611ff18284611d51565b915081905092915050565b60006020820190506120116000830184611c27565b92915050565b600060c08201905061202c6000830189611c27565b818103602083015261203e8188611d18565b905081810360408301526120528187611d18565b905081810360608301526120668186611d18565b9050818103608083015261207a8185611d18565b905061208960a0830184611fbd565b979650505050505050565b600060208201905081810360008301526120ae8184611c36565b905092915050565b60006020820190506120cb6000830184611cab565b92915050565b600060208201905081810360008301526120eb8184611d18565b905092915050565b6000602082019050818103600083015261210c81611dd0565b9050919050565b6000602082019050818103600083015261212c81611e10565b9050919050565b6000602082019050818103600083015261214c81611e50565b9050919050565b6000602082019050818103600083015261216c81611e90565b9050919050565b6000602082019050818103600083015261218c81611ed0565b9050919050565b60006020820190506121a86000830184611fbd565b92915050565b60006060820190506121c36000830186611fbd565b6121d06020830185611fbd565b6121dd6040830184611fbd565b949350505050565b6000604051905081810181811067ffffffffffffffff8211171561220c5761220b61253f565b5b8060405250919050565b600067ffffffffffffffff8211156122315761223061253f565b5b601f19601f8301169050602081019050919050565b6000819050602082019050919050565b60008190508160005260206000209050919050565b600081519050919050565b600081519050919050565b6000602082019050919050565b600082825260208201905092915050565b600082825260208201905092915050565b600082825260208201905092915050565b600081905092915050565b60006122d7826123eb565b91506122e2836123eb565b9250827fffffffffffffffffffffffffffffffffffffffffffffffffffffffffffffffff03821115612317576123166124b2565b5b828201905092915050565b600061232d826123eb565b9150612338836123eb565b925082612348576123476124e1565b5b828204905092915050565b600061235e826123eb565b9150612369836123eb565b9250817fffffffffffffffffffffffffffffffffffffffffffffffffffffffffffffffff04831182151516156123a2576123a16124b2565b5b828202905092915050565b60006123b8826123cb565b9050919050565b60008115159050919050565b600073ffffffffffffffffffffffffffffffffffffffff82169050919050565b6000819050919050565b82818337600083830152505050565b60005b83811015612422578082015181840152602081019050612407565b83811115612431576000848401525b50505050565b6000600282049050600182168061244f57607f821691505b6020821081141561246357612462612510565b5b50919050565b6000612474826123eb565b91507fffffffffffffffffffffffffffffffffffffffffffffffffffffffffffffffff8214156124a7576124a66124b2565b5b600182019050919050565b7f4e487b7100000000000000000000000000000000000000000000000000000000600052601160045260246000fd5b7f4e487b7100000000000000000000000000000000000000000000000000000000600052601260045260246000fd5b7f4e487b7100000000000000000000000000000000000000000000000000000000600052602260045260246000fd5b7f4e487b7100000000000000000000000000000000000000000000000000000000600052604160045260246000fd5b6000601f19601f8301169050919050565b612588816123ad565b811461259357600080fd5b50565b61259f816123eb565b81146125aa57600080fd5b5056fea2646970667358221220efff2ee6202e0a833ddf5f735da09fcf48ae8ddcf2f480b9046105f21d80623f64736f6c63430008000033",
  "linkReferences": {},
  "deployedLinkReferences": {}
}